:020000040800F2
:1000000000200020D5000008DD000008DF00000807
:1000100000000000000000000000000000000000E0
:10002000000000000000000000000000E1000008E7
:100030000000000000000000E30000084D0400087C
:10004000E7000008E7000008E7000008E7000008F4
:10005000E7000008E7000008E7000008E7000008E4
:1000600000000000E7000008E7000008E7000008C3
:10007000E7000008E7000008E7000008E7000008C4
:10008000E7000008E7000008E7000008E7000008B4
:1000900000000000E7000008E7000008E700000893
:1000A000E7000008E7000008E7000008D90400089E
:1000B0002D050008E7000008000000000000000017
:1000C0000348854600F088F900480047AD1A00084B
:1000D000002000200448804704480047FEE7FEE770
:1000E000FEE7FEE7FEE7FEE7D5040008C1000008D2
:1000F00010B5431A934209D28318881803E0401EB2
:1001000001785B1E1970521EF9D210BD03460B43D5
:100110009B0703D009E008C9121F08C0042AFAD2BD
:1001200003E00B780370401C491C521EF9D210BD2D
:10013000D2B201E00270401C491EFBD2704700227F
:10014000F6E710B513460A4604461946FFF7F0FFD6
:10015000204610BD30B504460020034600E05B1C7D
:10016000934203D2E05CCD5C401BF8D030BDF8B5C3
:1001700002464A40D40F42004B0052085B089A42A4
:1001800002D20246084611464A0023D0C30D4A0057
:10019000DDB2120EAD1A202D35DA49020126490AC8
:1001A000F6058A19002C00D0524220214F1B11461F
:1001B000B9402A411018C20D9A4221D0002C17D004
:1001C000012D08DCDA05801AD20F8019D207DBB2C4
:1001D00000F0C8F8F8BDDA05801A012340001B06BC
:1001E000C01880185A428018CA0F1043490007E00F
:1001F0004908C2071143DA05801A8019400880189F
:1002000000F0A8F8F8BD61000122511A001BF7E7C1
:100210000122D2075140AAE70122D2075040A6E7A7
:10022000024670B54A40D30FDB0740002DD04A008C
:100230002AD0010E140E000212020919400A520AB5
:100240008418E50104465443000A120A2E04504360
:10025000A4194219200CC543AA18120C0125AD039C
:10026000521C521912047F39240400D0521C10432E
:1002700001D44000491EC2B20C06C0092018401C1F
:100280004008802A02D003E0002070BD40084000F2
:10029000002900DA0020184370BD0122D20700288F
:1002A00000DB101A002900DB511A814201D901201C
:1002B00070470020704770B50446002903D0002025
:1002C0002022012310E0002801D00020C043C046B6
:1002D000C0460DE02546D5408D4205D30D469540DC
:1002E000641B1D46954040191546521E002DF1DC39
:1002F000214670BDF0B51FB40646002082B0054609
:100300004024019100901BE0019922460F4630469F
:1003100000F08AF8049A059B801A994110D3104680
:100320001946224600F070F8361A8F41019722468E
:1003300001200021009F00F067F838184D4100901F
:100340002046641E0028DFDC019B009829463246C7
:1003500007B0F0BD002904DA401C490001D1400873
:100360004000704770B40024050C05D1102400042F
:1003700002D1002921D01124050E01D10002083438
:10038000050F01D10001241D850F01D18000A41C9F
:10039000002801DB4000641C002908D020252E1B0A
:1003A0000D46F540A14000D0012129430843010634
:1003B0001B1B000ADB1D02D5002070BC7047DB054B
:1003C000181880180029F8DA401C4900F5D170BCD3
:1003D00040084000704700001CB5094800900948DB
:1003E000019005460126009C05E0E36807CC3343F5
:1003F0000C3C98471034AC42F7D3FFF765FE000081
:10040000382D0008582D000810B5202A04DB0146BD
:10041000203A9140002010BD914020239C1A0346B1
:10042000E3401943904010BD10B5202A04DB084674
:10043000203AD040002110BD0B46D340D0402024AC
:10044000A21A91400843194610BD0000B748016840
:10045000491C01607047C04610B51A4CA068800660
:10046000400F411E184803291DD8C0467944097918
:1004700049008F441C011215E168E1684906490FE3
:10048000491CFFF718FFE1684904490E4843E16839
:10049000490F491CFFF70FFF09E07D20000206E02D
:1004A0000120C00303E021688904490FC8400749BF
:1004B0000860A26892093C231340054AD258D040F4
:1004C000086010BD001002400024F400000000206D
:1004D000202C0008704700001148C1690A0701D0AC
:1004E0000F2202628A0602D5426A8A4B5A700906B6
:1004F0000BD50168090608D58649CA880B899A4236
:1005000004D1016880229143016070470A89054B3C
:100510009A5C82620889401C034A02400A81704743
:1005200000380140A0050020FF01000010B56A4816
:1005300001680A0707D00F224260764A53695B1CA4
:1005400053610123137089061CD582687148418864
:10055000C3685B1CC360491CC9B28388994205D13A
:100560000169491C01610121017010BD4388134CD0
:10057000E2545F4A126843889B00114CE250BFF37B
:100580005F8F418010BDC04610B5624A9388548881
:10059000A34201D1002010BD9388084CE35C037096
:1005A00090888000064B18580860BFF35F8F9088D2
:1005B000401CC0B29080012010BDC046A0000020A9
:1005C000A0010020F0B587B006460024E043002ECD
:1005D00029D00D46002926D00690EFF3108072B680
:1005E000012105910A073A490A60BFF34F8FBFF313
:1005F0006F8F484B197800290BD1598804929A883B
:100600009142049A05D1344F3968344A1142049A10
:100610000DD0996A491C99622E490A6080F31088AE
:100620000698441E00E00446204607B0F0BD2C4961
:10063000802202920A61402179602A4902220192B5
:100640000A6180F31088284868432849FFF733FE81
:100650007D21C900401826490A682346AB420FD0C5
:1006600003933B681B0604D40B689B1A8342F8D99A
:1006700005E0039BF35CFB60039B5B1CEEE7069CC1
:100680003B685B0604D40B689B1A8342F8D9069C2E
:10069000144801990160F349049A3868800601D52D
:1006A000B868FAE70F2078600D48029B0360114894
:1006B0000260FD480260002C05D0C869401CC8617A
:1006C00005980870B0E78869401C88610024ABE792
:1006D00080E100E000E100E01C4400402F00010048
:1006E00018040050180000508096980040420F00F7
:1006F0002400004080E200E0EFF3108172B6D94A96
:100700001078002803D0538893800023137081F35E
:10071000108870470400002004490A680B689B1A7F
:10072000834201D200BFF9E77047C046E00B0020CA
:10073000F0B58DB0C84F386E0C900124E1053A6ECB
:100740000A433A66796B07200A9001437963796B13
:100750000520079006071221B161C048802204924B
:1007600082613268042306931A4308239A43326055
:10077000032508952A023368934321025A183260F0
:100780002A040368134303600268B54B1A40A303AD
:100790000B94D2180260E2480C9AC2623868099140
:1007A00008433860A502B04B384629462A46984788
:1007B000B8680A9CA043B860384608303821002247
:1007C0000C920290A84B9847E00239688143396047
:1007D000A648411CF86B03910843F863F86B08982E
:1007E0004102A34802688A430B9C610251180160D0
:1007F0001430059529460C9A9B4DA8479D480168E1
:1008000002231943079A914301600A9901931A46FA
:10081000A84720063968814339606506384629466D
:100820000C9A914B98479448F8607F200002B96871
:100830008143B9609148401C3968014339603846AA
:1008400029462A46884B9847089A002817D1B86845
:100850000199084307998843B86038211022029C07
:10086000204601F01FFF00280CD0B8680A99884381
:10087000B86038210022204601F014FF069A342087
:10088000A7490A54FFF7E8FD7D4D28680890F86BEA
:100890007C490143F963386C7B4901433964386C06
:1008A00028687A49FFF707FD401E0B9A9107886276
:1008B0000C9CE043C8624A610C610A609848089940
:1008C00001637D20C1002868FFF7F5FC411E7048D8
:1008D0006A4DA9420AD86F4A516001682940032332
:1008E0009B07C918016094600A991160016829404A
:1008F0000B9FFA070892891801600F2108050B4623
:10090000316A81433162032188020A460A913168C3
:100910008143F8020818306018061D460193316AB9
:1009200081433162100331688143780308183060D5
:10093000306A4E4908403062306849490840F9033E
:100940000143316001F000FEF16840200143049B47
:100950009943F160316A504A1140099A114331625A
:10096000316820220A43102102918A433260290310
:10097000326A8A4339030791511831623168194349
:1009800081433160454D2C603D4800684449401822
:100990003E49FFF790FCE8606C602346AF60019829
:1009A00028622D242C603F4A5068FF218843506004
:1009B0003D49039808603D48016818220A430260D7
:1009C000706A02990843E021884370620A9A900491
:1009D00031688143F80408183060706A2E49084075
:1009E0000999084370621005316881437805081839
:1009F0003060454D1E462B60E1210802204A1268F6
:100A000010184902FFF757FCE86032466E60AE608E
:100A10002C60244B18681949084008994018186040
:100A2000F8062149086022480168079B19430160C4
:100A3000534C20482060204820600698606005984C
:100A40001938A06020460C300A9901F02BFE4D4861
:100A500020600DB0F0BDC046001002400004005000
:100A6000FF3FFFFF04000020A5260008FFFFFF0F47
:100A7000007000400020024002080030FFFFFF002D
:100A800000000020010002000150000040420F0061
:100A900020ED00E010E000E0FFF0FFFF0044004028
:100AA00020A1070018E400E000E100E000000140A0
:100AB00008580140CCCC00005555000070B51849CD
:100AC0000F4A104B0478002C0FD0CD886D1C1540B8
:100AD0000E89B54206D0CE889C55BFF35F8FCD807E
:100AE000401CEFE7486A401C4862EFF3108072B682
:100AF00005490A68802313430B6080F3108870BD9A
:100B0000FF010000A005002000380140EFF3108134
:100B100072B6034A50780023537081F310887047EF
:100B200004000020014800687047C04624000040CF
:100B3000014800687047C046E00B002010B504462D
:100B40000020C043002906D01346002A03D000220B
:100B5000204601F013FD10BD10B504460020C0432F
:100B6000002907D01346002A04D00A460021204657
:100B700001F004FD10BD000001480249016070470A
:100B800000300040AAAA0000432109014018817AE0
:100B9000002902D00168491C016000210181817295
:100BA00070470000F0B5D5B01F461446059103907C
:100BB00001200490060215A805463146FFF7BFFA4A
:100BC0000420002C00D1C1E0002F00D1BEE0059927
:100BD000FF2900D9BAE0711AA14200D2B6E001970C
:100BE00002945B4803990818039028462E46413624
:100BF0008E35EC30009006A800F0DCF863480078F1
:100C000030700520C043002817D015A9091806AA7E
:100C10001218538982268B55D68A88240E55128A3B
:100C20008E240A551B0A83240B55330A89240B553D
:100C3000120A8F23CA54801CE5E70C992970049886
:100C4000687106AAD078E8705378AB702823414CBD
:100C5000E35C2B7113785E1EB3419278561EB2414D
:100C60005200D218431E984180001018687015AECB
:100C700030469430384DA8470D9930469830A847F3
:100C80000E9930469C30A847344FB847014630464D
:100C9000A030A847B8470F99411A3046A430A8475A
:100CA000B8471099411A3046A830A84711993046E4
:100CB000AC30A84712993046B030A8471399304657
:100CC000B430A84714993046B830A8472746616821
:100CD0003046BC30A847A1683046C030A847039CC6
:100CE000A1683046C430A847E1683046C830A847FC
:100CF00021693046CC30A84721683046D030A8471B
:100D0000F9683046D430A84761693046D830A847E2
:100D1000396A3046DC30A847796A3046E030A84767
:100D200039693046E430A847B9693046E830A84709
:100D3000049800990870F9693046F430A84705987E
:100D400031180198029AFFF7D3F9002055B0F0BD91
:100D50001C040000100000206D230008310B000867
:100D600080B50720012A0FD1002B0DD0F02905D026
:100D7000412909D118780549087004E01978A52996
:100D800002D100F053FA002080BDC046E40B0020E1
:100D900010B528225E4B00249C54DC621C71DC7070
:100DA0001C869C639C87D9600421597028339C70F1
:100DB000D87010BD10B500281BD004465449283106
:100DC0003C22FFF795F9FFF7B3FE217800290BD0FD
:100DD000616A411A632903D8A16A401A642808D3BA
:100DE0000620E070002020700020208160602061DB
:100DF000A08210BDB0B50446454D284628303C21A0
:100E0000FFF79DF900200749074A084B6B61A9616C
:100E1000EA6128626862611EA9602870204601F0BC
:100E200009FCB0BD511D0008190700086D1D000820
:100E3000F0B58BB00746364D2878012807D1002041
:100E40002870286E401C2866384601F0F3FB68784D
:100E500078440079400087440276385D2B00E868CA
:100E6000381A0A2800D2A6E106AA00201070012133
:100E70000B4600F07BFF002800D072E028461430BB
:100E80002946293100F010FA00286AD12920285C6F
:100E9000702800D0BBE106AA04201070012631465C
:100EA000334600F063FF00285BD1EF606E7082E193
:100EB000E868381AC0087D2800D27CE1286E401C02
:100EC0002866384601F0B6FB75E1A878122800D9EB
:100ED0006DE14000784480884000874412002B0177
:100EE0000B011F01F9003D014901250161010501C7
:100EF0005B01F300FF004301EC000F01E000310152
:100F00004F0128461430012100F0B2F94DE1C046EE
:100F10003C000020A868874200D14CE1AF6008A9DE
:100F200000240C802E461436304600F09FFA00282C
:100F300017D108A801880805800F23D0A86D401C90
:100F4000A865072034E1E868381A1E2800D232E18B
:100F500006AA0024147001210B4600F0F9FE0028B7
:100F600001D0022024E106A80078400703D4AC7029
:100F7000022068701FE1E868381A642800D21AE17C
:100F8000042015E104940396A54801401029084661
:100F900000D310200126029701960446000400D1D8
:100FA0001AE106A90498887188800690039800F0D9
:100FB000B9F90028D5D106A801781F2008400128DA
:100FC0002DD0132810D0022867D1322038283BD0EA
:100FD00006A909180A46313A127830390978090207
:100FE00089182952801CF1E7049F3E46062E2FD017
:100FF00006A88019417882781002401809A9885300
:101000007C2111407C2929D000F07CFA0146FFF7B1
:1010100007F93946FFF7ABF80746B61CE6E72C2080
:1010200032280BD006A909180A462B3A12782A3919
:101030000978090289182952801CF1E7EF64EE70E3
:10104000686C401C686428E0A86C401CA86424E01C
:1010500038467449FFF721F9002805D0E86D401C97
:10106000E865029F019E18E009A948880A9A024390
:1010700009980243120402D0029F019E02E0019EE1
:10108000F003029F0880284638300622FFF730F828
:101090002F652E71286C401C2864601E7DE7284651
:1010A000143009AE314600F027FB014600203278AB
:1010B000022A2ED12EE02846143006AE314600F02A
:1010C000FFFB21E028461430062100F0DBFA6CE03B
:1010D00028461430022100F02DFB66E0284614302B
:1010E000012100F0B7FB60E028461430032100F036
:1010F00067FB5AE028461430002136E028461430B9
:1011000006AE314600F030FA014600203278062A59
:1011100000D0C043002948D0084646E02846143095
:10112000012100F0A6FC40E028461430062100F022
:10113000C2F83AE028461430012100F07DF834E08E
:101140002846143008AE314600F081FC01460020EC
:101150003278012ADDD1DDE728461430032100F082
:10116000ADF922E028461430062100F0BFF81CE05B
:1011700028461430062100F0A9F916E0284614305C
:1011800005AE314600F046FB014600203278002AC9
:10119000BFD0BFE728461430062100F01FFC04E052
:1011A00028461430012100F035F9002805D005202B
:1011B0003946FFF7EDFD0BB0F0BDA878401CA870D4
:1011C000C0B21328F7D12A20012129542F6103200E
:1011D0006870781EA860EEE7E878012819D12879B0
:1011E000002816D0E86C381A632817D8286D381AEA
:1011F000642813D208A80188094801400020112959
:1012000000D3064628216E542835E870D3E7032022
:10121000CEE72869381A04498842CCD30620C7E7AC
:10122000FF0100005C8F823FDC05000001480121C6
:10123000017070473C000020BCB50D46044601AA71
:101240000020107012210123204600F0AEFA002881
:1012500000D0BCBD01AA1078FB210140E807400F77
:101260000818107012210123204600F01DFBBCBDA0
:10127000BCB50D46044601AA0020107012210123BE
:10128000204600F092FA002800D0BCBD01AA1078D8
:10129000BF210140E807400E0818107012210123F9
:1012A000204600F001FBBCBD80B50A460F2101239A
:1012B00000F07BFA80BDBCB50D46044601AA0020B3
:1012C000107009210123204600F06FFA002800D099
:1012D000BCBD01AA10780F21014028010818107028
:1012E00009210123204600F0DFFABCBDBCB50D4644
:1012F000044601AA002010700A210123204600F0B4
:1013000054FA002800D0BCBD0720054001AA10787F
:10131000F8210140481910700A210123204600F0ED
:10132000C3FABCBD7CB50C466A4600219171918020
:101330000091782107252B4600F037FA002800D0CD
:101340007CBD21781F2291436A461278D3085B1E28
:101350001D2B4AD87B441B795B009F440E2A223404
:1013600036242C2E3A381A261E1430323F3D1046B1
:1013700046204146121C1828164301232AE0132355
:1013800031E019232FE00E2324E01D232BE01B2343
:1013900029E00B231EE01A2325E00D231AE0162373
:1013A00021E0032316E0062314E00C2312E01C23A3
:1013B00019E002230EE0294317E008230AE00F2377
:1013C00008E010230FE0042304E0052302E00A23D1
:1013D00000E00923194308E0122304E0112302E08E
:1013E000172300E01E2319432170019B23716B46D4
:1013F0005D7865709D78A570DD78E5705D796571C3
:101400009B79A3719F230B40110160220A40991818
:1014100021707CBD7CB50D46044601A800210170F9
:101420000121204600F0A2F9002818D1442101AA88
:101430000123204600F0B9F9002810D101AA107844
:10144000CD210140E80030230340E807800F181841
:101450004018107044210123204600F025FA06466A
:101460000021204600F082F980197CBDBCB50C46F5
:1014700001AA002111801B21022300F096F9002807
:1014800000D0BCBD01A90A784978CB07DB0D9A18BA
:1014900007235B0325881D400B09DB079B0D5B19A8
:1014A0008D09ED072D0D5B194D09ED076D0D5B19CC
:1014B000C9090903591889182180BCBDE0B501AAE2
:1014C00011700721012300F0EFF98CBDBCB50D466A
:1014D000044601AA0020107009210123204600F0D3
:1014E00064F9002800D0BCBD0F20054001AA107887
:1014F000F02101404819107009210123204600F015
:10150000D3F9BCBD10B51F218B0202461A40C10B96
:10151000C9079A4215D0002A19D1114A10401DD08E
:1015200000231A465B1C40004405FAD580B24003F4
:101530000C4B03400720C0060143D005081A18438E
:1015400010BD40030143FF20C005084310BD400407
:10155000000940180721C906401810BD084610BDF3
:10156000FF03000000C07F00F0B585B00291054682
:1015700004AA0020107003AE0190307011210127E1
:1015800028463B4600F011F90446622128463246BF
:101590003B4600F00AF9001900D071E003A904AA43
:1015A00013780F221A40531E0B2B029D019E66D802
:1015B000097803263140C0467B441B795B009F4479
:1015C0000505131A0B22261E2E0F2A07164656E073
:1015D000022928D00C2627E0022929D0052628E058
:1015E00002292AD00A2629E0022900D1232601292E
:1015F00045D1132643E0022924D0042623E0022902
:1016000025D0082624E0022926D0062625E0022936
:1016100027D0072626E0022928D00B2627E002291A
:1016200029D0092628E02C26012928D11C2626E0CD
:101630002526012923D1152621E02A2601291ED19C
:101640001A261CE02426012919D1142617E0282681
:10165000012914D1182612E0262601290FD11626B9
:101660000DE0272601290AD1172608E02B2601299B
:1016700005D11B2603E02926012900D119262E7049
:1016800005B0F0BD7CB50E46044601AA00251570D4
:101690006846057011210123204600F086F80028D5
:1016A0000ED10F20304001AA1178F0230B401818FA
:1016B000107011210123204600F0F6F8002802D016
:1016C000054628467CBD3609FBD062216A460123C7
:1016D000204600F06AF80028F2D1032006406A464E
:1016E0001078FC21014088191070622101232046E6
:1016F00000F0DAF8E4E70000BCB50C4601AA0025CA
:1017000015701521012300F050F8002800D0BCBD51
:1017100001A909780F220A40511E0B2901D802A203
:10172000555C2570BCBDC0460102030400000000EA
:101730000000000CBCB50D46044601AA0020107044
:1017400015210123204600F030F8002800D0BCBD50
:101750000F20054001AA1078F021014048191070AF
:1017600015210123204600F09FF8BCBDBCB50D46F5
:10177000044601AA00201070012120460B4600F00B
:1017800014F8002800D0BCBD01AA10783F21014008
:101790006801402303405818E901401810700121E6
:1017A00020460B4600F080F8BCBDB0B5002804D040
:1017B000C46845682046A847B0BD0020C043B0BDFE
:1017C0007CB50D46044601A8002101700121204688
:1017D000FFF7CCFF002800D07CBD5E2101AA0123C9
:1017E0002046FFF7E2FF064600280DD101AA107837
:1017F000C72101406807800E081810705E21012380
:10180000204600F051F8064600212046FFF7AEFFC3
:1018100080197CBD7CB50D46044601A800210170ED
:1018200001212046FFF7A2FF002800D07CBD042143
:1018300001AA01232046FFF7B8FF0646002803D17E
:1018400001988007C00F287000212046FFF78EFF07
:1018500080197CBD7CB50D46044601A800210170AD
:1018600001212046FFF782FF002800D07CBD042123
:1018700001AA01232046FFF798FF064600280DD154
:1018800001AA1078FD210140E807800F08181070A8
:1018900004210123204600F007F8064600212046D7
:1018A000FFF764FF80197CBDB0B5002804D0C46880
:1018B00005682046A847B0BD0020C043B0BD000069
:1018C000F0B585B00291054604AA0020107003AE61
:1018D000019030701021012728463B46FFF765FF35
:1018E00004466221284632463B46FFF75EFF001958
:1018F00000D071E003A904AA13780F221A40531EE6
:101900000B2B029D019E66D8097803263140C04604
:101910007B441B795B009F440505131A0B22261E8E
:101920002E0F2A07164656E0022928D00C2627E05B
:10193000022929D0052628E002292AD00A2629E0F2
:10194000022900D12326012945D1132643E002298B
:1019500024D0042623E0022925D0082624E00229E9
:1019600026D0062625E0022927D0072626E00229D0
:1019700028D00B2627E0022929D0092628E02C268A
:10198000012928D11C2626E02526012923D1152648
:1019900021E02A2601291ED11A261CE0242601292D
:1019A00019D1142617E02826012914D1182612E08F
:1019B000262601290FD116260DE0272601290AD156
:1019C000172608E02B26012905D11B2603E029262E
:1019D000012900D119262E7005B0F0BD7CB50E4648
:1019E000044601AA002515706846057010210123E0
:1019F0002046FFF7DAFE00280ED10F20304001AA62
:101A00001178F0230B401818107010210123204684
:101A1000FFF74AFF002802D0054628467CBD36095C
:101A2000FBD062216A4601232046FFF7BEFE002854
:101A3000F2D1032006406A461078FC210140881943
:101A40001070622101232046FFF72EFFE4E71CB54A
:101A50000C4601AA0021117017210123FFF7A5FEF2
:101A6000002800D01CBD01A9097803220A40227079
:101A70001CBDBCB50D46044601AA002010701721FC
:101A800001232046FFF791FE002800D0BCBD0320B3
:101A9000054001AA1078FC21014048191070172157
:101AA00001232046FFF700FFBCBD0000E4B0FEF7B5
:101AB0003FFE594C00945949594A5A4B204600F070
:101AC000EBFBFFF735F8FFF795F957A0FEF7F6FFA8
:101AD00065A0FEF7F3FF00200F9001201090734DDA
:101AE000FEF70AFE002809D0204600F035FC05E08C
:101AF0001AA80178199A204600F064F91AA819A9C1
:101B0000FEF742FD0028F3D1FFF70CF8014620460E
:101B100000F0DAFB605B00286DD16348205C002890
:101B200069D1FFF705F8FFF783F9FEF7EFFF0746E6
:101B30003F2817D04C2F0BD0722F05D0682F11D013
:101B40006C2F05D0522F10D1FFF770FB5B480AE0D5
:101B500010980128574800D057480121109A4A4050
:101B6000109200E05248FEF7A9FF20200743732F90
:101B700044D1FEF7DDFF0F9055AF3846FFF71AF955
:101B8000FEF7D6FF18900420385E17900620385EC6
:101B900016900820385E15904948265838781390DA
:101BA00078781290F8781190388A14907A8ABF8ADF
:101BB000444883685B9D60986199089209970AAAD6
:101BC0004BC21398009012980190119802900395BF
:101BD00017980490169805901598069014980790F9
:101BE0001BAFE6213846384A189B00F0A7FD38465F
:101BF000FEF764FF2D4DFEF7BFFF71E71098002838
:101C000007D0FEF795FF0F99401AC0087D28B0D283
:101C1000F0E700201090EDE7A0070020A50B0008DA
:101C2000610D0008F52400080D0A696D755F746F79
:101C30005F64786C20302E312E30207C2053544D40
:101C40003332473033314638207C2044584C3220E0
:101C500049443D323030203130303030303020385F
:101C60004E310D0A000000004C4F473D31313532F6
:101C7000303020384E313B203F3A68656C7020731D
:101C80003A737461747573206C3A746F67676C652E
:101C9000206C6F677320723A72657374617274207E
:101CA000494D550D0A0000003A04000034040000BC
:101CB000642C0008B32C0008BE2C00089B2C0008E4
:101CC0002404000010000020C82C0008F8B51446B9
:101CD000012252021D4B8350851829725521E9714A
:101CE000C82129718721C9004018009009340927AB
:101CF000A6B2B8B2B04218D241198A1E1278FF2A91
:101D000011D14A1E1278FF2A0DD12A5CFD2A0AD170
:101D1000C0433218881C491CFEF7EAF97F1CB8B290
:101D2000FD212954641C7F1CE2E7701F6871000AC2
:101D3000A8712846314600F029F8A855000A611C10
:101D400089B26854A01C00990880F8BDFFFFFD000F
:101D500080B5084611461A46FEF7F0FE002803D06B
:101D600009494A6D521C4A6580BDC04680B5084687
:101D700011461A46FEF7F0FE002803D002494A6DCC
:101D8000521C4A6580BDC0463C00002070B5002250
:101D90000B4B14468A4210D0855C2D02654000240E
:101DA000072C07D86E002DB2002D00D55E403546B9
:101DB000641CF5E7521C2C46ECE7A0B270BDC0468F
:101DC0000580FFFFF0B589B014460D460746FE4971
:101DD000405A7E18412109017B1800280AD0196851
:101DE000611AFA4A914206D300203060D969491C31
:101DF000D96100E00020B1790129089304D1384667
:101E0000FEF7C2FE089B30881C60032807D8FB49F8
:101E1000095C8D4211D1411C31803D54A9E10594EA
:101E2000411C31803D543488FE2D0ED0FD2D0CD345
:101E3000052C0AD10020308014E0FF2D16D1F04986
:101E4000398000281DD002201CE0072C10D17879A1
:101E5000B97909020818032802D34108FC2915D9C9
:101E6000002030609869401C986182E1002009E000
:101E70000A2C09D97088811EA14200D393E0214623
:101E800008E00120308074E1214602E0C01D70802E
:101E900007217088002800D16BE1844200D068E1FE
:101EA0000396F848381802900697C819C71E0325EC
:101EB000F64E002D09D0384631462A46FEF74AF93B
:101EC000002803D07F1C6D1EF3E700250495A01E9B
:101ED00084B2069F38462146FFF758FF395D0794C4
:101EE0003A1952781202511889B288422BD107242C
:101EF000E74E2046089B81B2079A914229D27A5C2C
:101F0000A3B2092B09D3DD19AF1E3F78FF2F069F1F
:101F100003D16D1E2D78FF2D05D0FA54089B761C39
:101F2000401C641CE7E7FA54FD2AF7D1491C8AB229
:101F3000079B9A42089B00D3E4E0795CFD2900D01E
:101F4000E0E0401CEBE708994869401C4861039DAC
:101F500006E1D868401CD8602246083A3846FF7926
:101F60000179552F35D1002004901004039D00D134
:101F7000F5E0FC29069F00D9F2E0A879022800D0FC
:101F8000EEE0E879814200D0EAE05868059A101A3C
:101F9000C049884200D9E3E00120A871287A4000B6
:101FA00080189860DCE03919091F0A784B781B0209
:101FB0009A188B781B04C9780906C918089B8918D8
:101FC000B14A9142214600D064E7042030603A6073
:101FD00048E707920D46FEF7D7FD28460021FE2D63
:101FE000049102D0C82800D0B8E0069A0832922F97
:101FF00000D1B1E0022F089B00D191E0032F11D056
:10200000822F5DD0832F059C24D0012F039D7DD18D
:10201000FE28069F00D1A3E00798000400D1D7E076
:1020200005217AE00398437A079880B2032800D20A
:10203000A1E0069F387A797A0902081881B20893DC
:102040003B460A330A3CA2B2384600F03BFB089BF1
:10205000014692E0FE28039D00D080E0079880B200
:1020600007900528069F7BD3B87AF97A09020818E9
:1020700085B2002D46D007998D4243D2401C83B2D1
:102080000426104607991446324600F0E3FA089BEE
:10209000002837D0681C079BB1B2994200D356E79D
:1020A0004618625CC82AF7D16018431C387A797ADE
:1020B0000902081881B238462A4600F003FB46E7B9
:1020C000FE284BD10398407A0028069F00D13EE7B6
:1020D000079881B2052915D310460422012300F088
:1020E000B9FA089B00280DD0B0B2021F0024204688
:1020F000824200D1A1E039180B7BC82B00D19EE0B1
:10210000401CF5E79869401C986120E7C828069FA5
:1021100026D1687A022823D102213846224674E06B
:10212000FE281BD0039D687A0028069F18D00798C8
:1021300080B2042866D1B87AFA7A397A7B7A002498
:102140000494E44300941B02591889B21202101837
:1021500082B23846059B87E0FE2819D0039D069F72
:10216000049CA2B249493846FDF7C2FF00206880AE
:102170002C8009B0F0BD0521069F059AFE2D00D1E7
:10218000E5E6022B00D0E2E6384600F0F9F8DEE69C
:10219000039D687A0028069FE2D0079881B2002448
:1021A0000523079210460E46224600F053FA0028F7
:1021B00004942DD0079AA1B2B142D1D2505CC82864
:1021C0002BD04C1DF7E7C04634040000DD050000AD
:1021D000FF204E300121029A5052442010700021FD
:1021E0000322384604911E46FFF770FD6E48E880D2
:1021F000287A400000197460B060B1E7602C0008D4
:10220000FFFF000005213846059A00F0B9F8A7E75E
:1022100008998869401C8861A2E75318D8781A7910
:10222000120210185A789C782402A21800240494F0
:10223000002912D0591F097811E0049487E6BA7A70
:10224000FB7A1B029A183B7A7C7A2402E31800245A
:10225000049400280BD0C87A0BE00499C943059B6D
:10226000009191B282B2384600F0A0F878E7049865
:10227000C043009099B292B2069F3846059B00F089
:1022800095F864E609020000FFFFFD00602C0008DD
:10229000FFFF0000A7610000F8B51C4615460E467A
:1022A0000746112081013846FDF749FF0548022104
:1022B0003954012080023E503818069945608460E8
:1022C000C160F8BD3D040000F8B50D46044681200C
:1022D000C00026181D4827183889002809D0B06882
:1022E000281A1B49884204D30020B8603868401C73
:1022F0003860B87B022808D1F068281A154988424E
:1023000022D32046FEF740FCB87B01281CD130695F
:10231000281A19D47D210901884202D83889002859
:1023200003D02046FEF730FCF8BDBA890020B88102
:10233000B8733368002B07D0012040022118706861
:102340009847B069401CB061F8BDC0462C0400003D
:10235000DD050000A861000080B50349002242505D
:10236000FEF712FC80BDC046340400000022202A83
:1023700005D00B46D3400370401C0832F7E7704786
:10238000B0B5144605460022FFF7A0FC05482C50C6
:102390005749054A6A522818691889784900091965
:1023A0004160B0BD1404000001FF0000F0B58BB027
:1023B0001C460A914E49461801239902069040187E
:1023C00009900027052110980590002A79D015461C
:1023D0001802824275D80A982818190407228842E0
:1023E00001D911466DE00092029440480699081800
:1023F00007900024019404960393A0B2854257D914
:102400000A99631899B20A2910D344290ED02A1BBD
:10241000089201273E19B2B2AA4225D2FA1892B206
:102420000A2A23D3442A21D07F1CF3E709292ED876
:102430004422890001A35958039B8F46A924000810
:1024400065240008972400089724000897240008B2
:10245000972400089B240008A3240008A724000850
:102460009F2400084D221FE02C4601E008973446C7
:10247000099A16680027002E1DD0079B1B18D068EC
:10248000089A92B2B0470028049EB6D017E04429BB
:1024900001D1F27808E0002206E01A4604E0B278A2
:1024A00002E0C82200E0032207990A54641CA4E752
:1024B00001992F4604E00099029C049E01E0014628
:1024C000029C06983A46FFF701FC09994C61059871
:1024D0007070002801D4022000E001203070B07834
:1024E0004000001988610BB0F0BDC0460902000031
:1024F0003A04000010B5044608461146FEF762F89B
:10250000002804D0432000012158491C215010BD4F
:10251000B0B5454A1468454B1D68AD0704D415682D
:102520002D1B642DF8D907E018711868C00706D173
:102530001068001B6428F8D90020C043B0BD18798A
:1025400008700020B0BDC0460120000308490A6899
:1025500002430A600A6882430A600648064901602D
:10256000172109024160016840220A430260704756
:10257000301002400030014027030000FEB51C4629
:1025800001920E462749102200920A61711E3246BE
:102590008A41D1017F2202408818BFF34F8F02A9E0
:1025A000FFF7B6FF0025002801D1074619E0EF43E9
:1025B00017E0A54217D20027002E384601D1019816
:1025C000405D02A9FFF7A4FF002801D1074600E003
:1025D000FF43002E04D0002802D102987055002736
:1025E0006D1C002FE5D010480168104A13681B06C7
:1025F00009D503685B1A652BF8D30A480099016076
:102600000020C74304E0074800990160002F07D06D
:102610000748016A491C0162FFF796FF3846FEBD74
:102620000027FBE71800005024000040083001405C
:102630000400002006490022CA620A710A868A63E1
:102640008A874A80C8604A70012000068862704705
:102650003C000020FEB504460020914221D91D46D1
:1026600016460F460290881A80B21946FDF723FEDF
:10267000002901D00298FEBD304681B2B9420FD286
:10268000625CFC2AF6D80190334698B2884204D2A4
:102690005B19205C8242F8D1ECE701984019ECE725
:1026A0000120FEBD10B5064B04680C40944204D0D6
:1026B0005B1CF9D30020C04310BD002010BDC046F4
:1026C000807BE1FF70B5002A07D004465518012031
:1026D00006040720B54202D970BD052070BD164D15
:1026E0006519092906D1012A04D11878FF2808D0D4
:1026F00028701DE0442906D1012A04D11878022847
:1027000015D9042070BD0B4D64190025AEB2964258
:1027100007D26E18B6B20A2EDED36D1C442EF5D148
:10272000DAE72568002DD7D0A068A84770BD68708B
:10273000002070BD040400003C0400000FB47CB510
:102740000C0009AD01D0611E00E000210191009054
:10275000074B6A462946089800F01CF8002C02D066
:10276000009A002111707CBC08BC04B0184700001E
:10277000092C000802E008C8121F08C1002AFAD17B
:1027800070477047002001E001C1121F002AFBD1F1
:1027900070470000FFB591B00F460546002606E0E1
:1027A00025280AD0149A139990476D1C761C287816
:1027B0000028F5D1304615B0F0BD00240094012169
:1027C000F34A029400E004436D1C2B780846203B3A
:1027D00098401042F7D128782A280ED00221287874
:1027E0000246303A092A15D8009A0A235A43303A49
:1027F00080180C436D1C0090F1E701CF0090002879
:1028000005DA012040030443009840420090022072
:1028100004436D1C28782E2815D1042004436878C1
:102820006D1C2A280AD101CF6D1C02900BE0029981
:102830000A225143303940186D1C02902878014615
:1028400030390929F3D928786C2810D006DC4C28B7
:102850001AD068280ED06A2817D104E0742813D043
:102860007A2812D110E00120400504430CE0012138
:10287000090501E0032109050C436978814203D170
:102880000120000524186D1C6D1C287803906E280B
:102890001ED00CDC632831D004DC00288AD05828F4
:1028A00011D1B2E064287BD069280CD178E073287C
:1028B0002DD004DC6F2870D0702804D1A7E07528D3
:1028C0006CD078286BD0149A13999047761C62E0EC
:1028D0006002400F022807D003280AD00428386875
:1028E0000AD006603F1D56E03868F1170660416067
:1028F000F8E738680680F5E70670F3E73878694648
:1029000008740020487404A80390012003E038688C
:1029100003900020C0433F1D61070FD5002101E057
:102920000199491C029A0191914213DA8142F7DB25
:10293000019A0399895C0029F2D10BE0002101E0A2
:102940000199491C01918142FADB019A0399895C42
:102950000029F5D101990098139A401A0090214658
:10296000149B00F03BF901998019461807E0039881
:1029700003990078491C0391149A13999047019880
:10298000401E0190401CF2D12146149B139A0098DE
:1029900000F014F986196D1C09E741E033E034E0DA
:1029A0000A200021049005916002410F022905D000
:1029B00001CFC2179446032905D007E0FF1DFF0889
:1029C000FF0003CF06E000B2C2179446042902D1EB
:1029D00040B2C1178C4600226146944506DA0A4689
:1029E0000021404291418C462D2102E0210504D571
:1029F0002B216A461176012103E0E10701D0202155
:102A0000F7E7019154E00A200BE0102009E01020C4
:102A1000049000210420044308200591029003E063
:102A200008200021059104906002410F022905D081
:102A300001CF00229446032906D006E0FF1DFF08BF
:102A4000FF0003CF8C4603E080B2042900D1C0B25E
:102A50000021019121072BD50399702906D0049AF2
:102A60001021059B4A401A4305D00EE040216A46DA
:102A70001176012108E06146014306D030216A4603
:102A800011760399517602210191049A0821059B40
:102A90004A401A430CD16146014301D1610707D571
:102AA00030216A461176012101910299491E029155
:102AB0000399582904D037A103910FA90F910DE074
:102AC00039A1F9E76146059B049AFDF713FC039BC6
:102AD0008C469B5C0F9A521E0F9213706146014305
:102AE000F0D10F9807A9081A20300390600704D589
:102AF000012000048443029801E001200290039920
:102B0000884201DD401A00E000204118029001983F
:102B100009180098401A0090E00306D42146149B3F
:102B2000139A009800F05AF886190020049008E0E3
:102B300006A9085C149A139990470498401C761CC7
:102B4000049001998842F3DBE0030CD52146149BE5
:102B5000139A009800F042F8861904E0149A302085
:102B600013999047761C0299481E02900029F5DCC3
:102B700008E00F980F990078491C0F91149A139947
:102B80009047761C0399481E03900029F1DCFBE670
:102B90000928010030313233343536373839616233
:102BA00063646566000000003031323334353637F7
:102BB000383941424344454600000000F8B5044618
:102BC00000251E461746880404D405E03946202017
:102BD000B0476D1C641EF9D52846F8BDFFB5044604
:102BE000002581B01E46C80301D5302700E020270C
:102BF000880404D505E038460399B0476D1C641E6F
:102C0000F9D5284605B0F0BD4A68002A06D00A6802
:102C1000531C0B6010704868401E486070470000ED
:102C200000000000000000000000000000000000A4
:102C30000000000000000000000000000000000094
:102C4000010000000200000003000000040000007A
:102C50000600000007000000080000000900000056
:102C6000FFFFFD00733D7374617475732C206C3D20
:102C7000746F67676C6520706572696F6469632043
:102C80006C6F67732C20723D7265696E697469613F
:102C90006C697A6520494D550D0A00494D552072E1
:102CA000657374617274207265717565737465649F
:102CB0000D0A006C6F6773206F66660D0A006C6FFB
:102CC0006773206F6E0D0A00743D256C7520726568
:102CD0006164793D25752069643D3078253032582E
:102CE000206572723D2575206E3D256C75206779D3
:102CF000726F3D25642C25642C2564207131363D8E
:102D0000253034582C253034582C25303458207335
:102D100070696572723D256C75206669666F3D2528
:102D20006C7520756172743D256C75206372633D0E
:102D3000256C750D0A000000582D000800000020C9
:102D400004000000742700085C2D00080400002027
:0C2D5000E40B0000842700080024F400BD
:04000005080000D51A
:00000001FF
